:020000040800F2
:10000000C0060020350200088F12000825120008E3
:100010008D1200086105000845130008000000006B
:100020000000000000000000000000009512000821
:1000300063050008000000009112000897120008F4
:100040004F0200084F0200084F0200084F0200084C
:100050004F020008931200084F0200084F020008E8
:100060004F0200084F0200084F0200084F0200082C
:100070004F0200084F0200084F0200084F0200081C
:100080004F0200084F0200082D0400080000000085
:100090000000000000000000000000004F02000807
:1000A0004F0200084F0200084F0200084F020008EC
:1000B0004F0200084F0200084F0200084F020008DC
:1000C0004F0200084F0200084F0200084F020008CC
:1000D0004F0200084F0200084F0200080000000015
:1000E0004F0200084F0200084F0200080000000005
:1000F0000000000000000000000000004F020008A7
:10010000000000004F0200084F0200084F020008E4
:1001100000000000000000000000000000000000DF
:100120004F0200084F0200084F0200084F0200086B
:100130004F02000800000000000000000000000066
:100140000000000000000000000000004F02000856
:100150004F0200084F0200084F0200084F0200083B
:100160004F0200084F0200080000000000000000DD
:10017000000000000000000000000000000000007F
:10018000000000004F020008000000000000000016
:100190004F02000800F002F800F03CF80AA090E8D6
:1001A000000C82448344AAF10107DA4501D100F032
:1001B00031F8AFF2090EBAE80F0013F0010F18BFC3
:1001C000FB1A43F00103184788140000A81400002C
:1001D000103A24BF78C878C1FAD8520724BF30C873
:1001E00030C144BF04680C60704700000023002445
:1001F00000250026103A28BF78C1FBD8520728BF37
:1002000030C148BF0B6070471FB501F00FFA1FBD2A
:1002100010B510BD00F0CFF81146FFF7F5FF01F063
:10022000A3F800F0EDF803B4FFF7F2FF03BC00F011
:10023000F5F800000948804709480047FEE7FEE757
:10024000FEE7FEE7FEE7FEE7FEE7FEE7FEE7FEE786
:1002500004480549054A064B70470000351300085D
:1002600095010008C0000020C0060020C002002048
:10027000C002002053EA020C00F069802DE9F04B27
:100280004FF00006002B1FBFB3FA83F503FA05F405
:1002900024FA05F65E4012BF1643B2FA82F502FA5E
:1002A00005F4C5F120051EBF22FA05FC44EA0C0442
:1002B000203556EA044C4FEA144418BF641C4FF032
:1002C00000084FF00009904271EB030C39D300296C
:1002D00019BFB1FA81F701FA07F6B0FA80F700FA10
:1002E00007F6C7F120071EBF20FA07FC46EA0C06F6
:1002F0002037B6FBF4FCA7EB0507103F07F01F0BF8
:10030000CBF120060CFA0BFB2CFA06F644BFB346E1
:100310000026202FA4BF5E464FF0000B5BEA060CC0
:1003200008BF4FF0010B19EB0B09ABFB027C48EB4C
:100330000608C01B06FB02CC0BFB03CC71EB0C01C7
:10034000C1E70B46024641464846BDE8F08B13B56F
:100350004FF000004FF00001AFF30080BDE81C40FB
:1003600070474FF0000200B5134694469646203978
:1003700022BFA0E80C50A0E80C50B1F12001BFF45E
:10038000F7AF090728BFA0E80C5048BF0CC05DF8C4
:1003900004EB890028BF40F8042B08BF704748BF12
:1003A00020F8022B11F0804F18BF00F8012B704786
:1003B000704770477047754600F02CF8AE46050050
:1003C0006946534620F00700854618B020B5FFF770
:1003D0003FFFBDE820404FF000064FF000074FF010
:1003E00000084FF0000B21F00701AC46ACE8C00953
:1003F000ACE8C009ACE8C009ACE8C0098D4670475C
:1004000010B50446AFF300802046BDE81040FFF76A
:100410000ABF000000487047600000200149182012
:10042000ABBEFEE72600020070470000014800F066
:1004300061B9000018000020464910B54A6822F44E
:1004400040324A604A6843681A434A6001684A6811
:1004500022F480724A6001684A68036942EA032212
:100460004A6001684A6822F040724A6001684A683E
:1004700083681A434A6001688A6822F400628A60CD
:1004800001688A68C3681A438A60816A6FF0706283
:10049000D14201688A6822F070628A6001688A68C5
:1004A0000CD0836A1A438A6001688A6822F040523D
:1004B0008A6001688A68C36A1A4301E022F04052E8
:1004C0008A6001688A6822F002028A6001688A688C
:1004D000037E42EA43028A6090F8201000290168F6
:1004E0004A680FD042F400624A6001684A6822F408
:1004F00060424A6001684A68174C436A04EB433320
:100500001A4301E022F400624A600168CA6A22F4D8
:100510007002CA620168CA6A838B104C04EB0353F1
:100520001A43CA6201688A6822F400728A6001680C
:100530008A6890F8303042EA43228A6001688A680B
:1005400022F480628A6001688A68406942EA8020F9
:10055000886010BD0023014000E0FFFF0000F0FFB5
:10056000FEE770477047000078B50024009490F8CB
:100570003C20012A19D0012280F83C200A68072378
:100580000568092A13D9EE680A3A02EB4202934041
:100590009E43EE600B788A680A3B03EB43039A4064
:1005A0000368DD682A43DA6010E0022078BD2E6916
:1005B00002EB420293409E432E610B788A6803EB64
:1005C00043039A4003681D692A431A614A681F233E
:1005D000072A13D205686E6B521E02EB820293400B
:1005E0009E436E630B790A885B1E92B203EB830312
:1005F0009A4003685D6B2A435A6327E005680D2A19
:1006000012D22E6BD21F02EB820293409E432E63C6
:100610000B790A88DB1F92B203EB83039A400368CD
:100620001D6B2A431A6311E0EE6A0D3A02EB820257
:1006300093409E43EE620B790A880D3B92B203EB26
:1006400083039A400368DD6A2A43DA62164B056821
:10065000144A9D4206D10D68122D03D1556845F408
:100660008005556005689D4218D10B68102B01D09C
:10067000112B13D1536843F4000353600968102908
:100680000CD10A490A4A0968B1FBF2F101EB810178
:10069000490000E0491E00910029FBD180F83C4050
:1006A000002078BD002301400020014014000020FC
:1006B00040420F0010B5094800F019F8084C80B20C
:1006C000208000F0A2FE9FED071B53EC112B00F0E1
:1006D000AFFE00F069FE606010BD00001800002051
:1006E000000000207B14AE47E17AB43F70470068F9
:1006F000C06C704770B5044600680668456816F01F
:10070000020F05F020012AD049B3216CC90603D499
:10071000216C41F400712164816811F0405F17D1B0
:10072000217EA9B9C16A11F4700F02D08168490510
:100730000ED4416821F020014160206C20F48070CB
:100740002064206CC00403D4206C40F001002064BD
:100750002046FFF7AFFF21686FF01200086016F027
:10076000040F05F0800132D089B3206CC00603D499
:10077000206C40F4005020642068816811F4401F10
:100780001ED1816B11F4401F02D08168490517D436
:100790004168490514D4816811F0405F10D1217E71
:1007A00071B9416821F080014160206C20F48050D3
:1007B0002064206CC00503D4206C40F0010020644C
:1007C0002046FFF7CFFE21686FF00C00086016F09E
:1007D000010F05F040010FD071B120680068C0071B
:1007E0000AD0206C40F480302064204600F043F8AA
:1007F00021686FF00100086016F0200F05F080619D
:100800000ED000290CD0606C40F0020060642068BB
:100810006FF0200505602046FFF768FF206805603F
:1008200070BD70B504004FF0000503D0206C0026A9
:1008300010B107E0012070BD204600F01DF866648D
:1008400084F83C60206CC00610D4206C20F48850E2
:1008500040F0020020642046FFF7EEFD6664206C45
:1008600020F0020040F00100206400E0012584F83F
:100870003C60284670BD704710B586B00446142110
:100880006846FFF76EFD15492068884224D1144858
:100890000021026842F480720260006800F48070F7
:1008A00005900F481438026842F0010202600068A7
:1008B00000F001000590012000900320CDE9010126
:1008C0006946084800F07EF800221146122000F028
:1008D000E3F9122000F0D2F906B010BD002001406B
:1008E000443802400000024018B50021009190F801
:1008F0003C20012A07D0012280F83C20026893683E
:10090000DB0702D011E0022018BD936843F0010319
:100910009360274A274B1268B2FBF3F202EB4202C4
:1009200000E0521E0092002AFBD102689368DB07A8
:1009300033D0036C40F20164A34343F48073036437
:1009400053685B0505D5036C23F4005343F48053CF
:100950000364036CDB0404D5436C23F00603436497
:1009600000E0416480F83C10134B6FF022011160ED
:1009700001684A68114C22434A6059680068C906F8
:1009800002D00F49884210D1816811F0405F0CD12C
:10099000816841F08041816007E0016C41F0100105
:1009A0000164416C41F001014164002018BD000068
:1009B0001400002040420F000023014020000004EA
:1009C000002001402DE9F84FDFF8B8A100220124F2
:1009D00003254FF00F090AF1040BAAF1040E00BF22
:1009E0000B6804FA02F63340B34273D10F7907F073
:1009F0000307012F01D0022F16D187684FEA420862
:100A000005FA08FC27EA0C07D1F80CC00CFA08FC20
:100A10004CEA070CC0F808C04768B7430E79C6F324
:100A2000001696403E4346600E79F643B6070DD059
:100A3000C768560005FA06FC27EA0C07D1F808C07B
:100A40000CFA06FC4CEA070CC0F80CC00E7906F054
:100A50000306022E10D1D60800EB8608D8F82060D5
:100A600057074FEAD76C09FA0CF7BE430F6907FA2C
:100A70000CF73743C8F8207006684FEA420C05FAB5
:100A80000CF7BE430F7907F0030707FA0CF737435B
:100A900007604E6816F4403F6DD03B4E376847F410
:100AA00080473760366822F0030706F480460096D8
:100AB000364E07EB060CDCF8086897073F0F09FA7B
:100AC00007F826EA0806DFF8C880404503D14FF052
:100AD00000081EE04FE0DFF8BC80404502D14FF037
:100AE000010816E0DFF8B080404502D14FF002085F
:100AF0000FE0DFF8A880404502D14FF0030808E07E
:100B0000DFF89C80404502D14FF0040801E04FF02F
:100B1000070808FA07F848EA0608CCF80888DAF85F
:100B200000605746D1F804C09E435FEACC2C00D544
:100B30001E433E60DBF800605F46D1F804C09E4370
:100B40005FEA8C2C00D51E433E60DEF800607746DD
:100B5000D1F804C09E435FEA8C3C00D51E433E6042
:100B6000084F083F3E68D1F804C09E435FEACC3C82
:100B700000D51E433E60521C102AFFF431AFBDE881
:100B8000F88F0000083C014044380240003001402A
:100B9000000002400004024000080240000C024035
:100BA00000100240014880687047000008000020E3
:100BB0000248816802781144816070470800002073
:100BC0000B4810B5016841F400710160016841F4FF
:100BD00080610160016841F480710160032000F0D0
:100BE0007BF8002000F006F800F024F8002010BD8B
:100BF000003C024070B50D4D04464FF47A712878E0
:100C0000B1FBF0F00A490968B1FBF0F000F0F6FA28
:100C100048B9102C07D200222146501E00F03CF8A3
:100C200000206C6070BD012070BD00000800002035
:100C300014000020104808B5016841F480410160AB
:100C4000006800F4804000900B48001F016841F0EC
:100C500080510160006800F080500090072000F093
:100C60003BF800221146052000F016F8BDE80840C8
:100C7000052000F003B8000044380240002809DBDA
:100C800000F01F02012191404009800000F1E020A6
:100C9000C0F8001170470000F0B40E4B1B680C4602
:100CA000C3F30223C3F10705042D00D90425191D40
:100CB000072901D2002300E0DB1E012606FA05F118
:100CC000491E214099409E40761E16403143F0BC9B
:100CD00000F039BB0CED00E0064900F0070208689F
:100CE0004FF6FF03184040EA0220034A1043086011
:100CF000704700000CED00E00000FA052DE9F04718
:100D00000E46050065D0DFF81481D8F80000F7B270
:100D100000F00700B04207D288F80070D8F8000051
:100D200000F00700B04254D128683D4C810712D52D
:100D3000400703D5206840F4E05020602878000781
:100D400003D5206840F4604020602068A96820F046
:100D5000F000084320602878C0072DD0304968682B
:100D60000839012812D0022813D0032811D00968AD
:100D7000890700292DDA216821F003010143216050
:100D8000FFF710FF814641F2883A0EE009688903B7
:100D9000EFE709688901ECE7FFF704FFA0EB090121
:100DA000514502D90320BDE8F0872068696800F04A
:100DB0000C00B0EB810FEFD1D8F80010404601F0E5
:100DC0000701B14207D90770006800F00700B04280
:100DD00001D00120E7E72878400705D52068E968B9
:100DE00020F4E050084320602878000706D52068EA
:100DF000296920F4604040EAC100206000F018F842
:100E00002168084AC1F30311515CC84006490860D3
:100E100006480068FFF7EEFE0020C4E7003C0240F1
:100E20000838024040160008140000200C00002082
:100E3000154810B5006810F00C02144813D041108A
:100E4000042A0FD0082A0ED10F4C241F22682368D1
:100E500002F03F025B0207D52068C0F38810A0FBB8
:100E6000010106E0084610BD2168C1F38811A1FB0D
:100E700000010023FFF7FEF92168C1F30141491C7D
:100E80004900B0FBF1F010BD083802400024F40026
:100E90002DE9F84F04006ED02078DFF84C93C0079E
:100EA000A9F104054AD009F104000168C1F38101E8
:100EB000012908D00068C0F3810002280AD1D9F8BE
:100EC0000000400206D52868800337D560680028F6
:100ED000E1D033E06068B0F5803F10D0B0F5A02FCE
:100EE000286810D020F480302860286820F4802002
:100EF00028606068A8B1FFF755FE06460DE0286837
:100F000040F48030F4E740F480202860F7E700BF29
:100F1000FFF748FE801B642873D828688003F7D544
:100F20000CE0FFF73FFE064605E000BFFFF73AFE84
:100F3000801B6428F0D828688003F7D42078DFF875
:100F4000AC8280074FF0000A3ED5A748001D01681B
:100F500011F00C0F08D00068C0F3810002280BD1FB
:100F6000D9F80000400207D42868800716D5E06849
:100F7000012800D112E033E1E068B8B10120C8F8DF
:100F80000000FFF70FFE064605E000BFFFF70AFE70
:100F9000801B0228C0D828688007F7D528682169F7
:100FA00020F0F80040EAC10028600DE0C8F800A079
:100FB000FFF7F8FD064604E0FFF7F4FD801B02286A
:100FC0001FD828688007F7D42078000722D5864FDD
:100FD00087486169703771B101210160FFF7E2FD57
:100FE000064604E0FFF7DEFD801B022809D83868BA
:100FF0008007F7D50EE0C0F800A0FFF7D3FD064646
:1010000005E082E0FFF7CEFD801B02287DD838681E
:101010008007F7D42078400768D5DFF8CCB10027E7
:101020000BF13C0BDBF80000C0000BD4DBF8001028
:1010300041F08051CBF80010DBF80000012700F0F0
:10104000805000906B4E3068C00510D4306840F47A
:1010500080703060FFF7A6FD009005E0FFF7A2FD6D
:101060000099401A022850D83068C005F6D55E4E67
:10107000A0686C3601280FD00528306810D020F009
:1010800001003060306820F004003060A068B8B122
:10109000FFF788FD00900FE0306840F00100F4E7B2
:1010A00040F004003060F7E7FFF77CFD0099411A3B
:1010B00041F28830814266D830688007F4D50EE06E
:1010C000FFF770FD009007E0FFF76CFD0099411AF3
:1010D00041F28830814256D830688007F4D42FB16D
:1010E000DBF8001021F08051CBF80010A069C8B3E4
:1010F0003D49091D0968C1F3810102294AD002282E
:10110000504607D0C8F8600000E03CE0FFF74AFD19
:1011100004463BE04746C8F86000FFF743FD06463B
:1011200005E000BFFFF73EFD801B02282BD8286892
:101130008001F7D4D4E907010843A16A2E4A49087F
:1011400002EB0141626A41EA8211084394F82C10D3
:1011500040EA0161C9F8001001203866FFF722FD5E
:10116000044606E03EE000BFFFF71CFD001B02281E
:1011700009D828688001F7D534E000BFFFF712FDD9
:10118000001B022802D90320BDE8F88F28688001DF
:10119000F4D427E00128F7D0D9F80000E26900F480
:1011A000800191421CD1226A00F03F01914217D187
:1011B00047F6C071626A0140B1EB821F10D1A26A8A
:1011C0004FF0FF3300F4403103EB5202B1EB024F1A
:1011D00006D194F82C1000F07060B0EB016F01D0D4
:1011E0000120D1E70020CFE7043802400000474249
:1011F000800E4742007000400000FFFF10B5401E07
:10120000B0F1807F01D3012010BD4FF0E024606178
:101210000F21601700F097F80020A06107202061DF
:10122000002010BDFEE700007FB5002415480094A3
:10123000019402941249039401604FF48031C0E993
:10124000011401250461057680F820400E49C0E9AB
:101250000A14C561C46080F830404561FFF7E1FAC7
:1012600008B172B6FEE707200094CDE90150694647
:101270000448FFF779F9002801D072B6FEE77FBD78
:1012800000200140180000200100000FFEE7FEE7EB
:10129000704770477047FFF78BBC000030B593B0C4
:1012A00030216846FFF75DF814210CA8FFF759F8C4
:1012B0001E480024016841F080510160006800F080
:1012C000805011901A48016821F4404141F40041D6
:1012D00001600068022500F4404011900120039055
:1012E0001020009506950490CDE907404FF4A870B2
:1012F000099004200A9007200B906846FFF7C8FD6C
:1013000008B172B6FEE70F20CDE90C054FF480500E
:10131000CDE90E4002210CA81094FFF7EFFC002845
:1013200001D072B6FEE713B030BD00004038024075
:10133000007000400248016841F47001016070478C
:1013400088ED00E0FEE70907090E002804DB00F144
:10135000E02080F80014704700F00F0000F1E0205A
:1013600080F8141D7047000008B5FFF729FCFFF74F
:1013700095FF0B48016841F080010160016801F0B0
:1013800080010091016841F001010160006800F0F6
:1013900001000090FFF748FF0248FFF7A5FAFEE7BB
:1013A000303802401800002021F00042A2F16052C3
:1013B000B2F5801F01F0004328BFD2F17F6C0BD93A
:1013C0005FEA001C43EAC20242EB507018BF70474C
:1013D00028BF20F001007047B2F5801FBCBF18463F
:1013E00070474FEA410C1CF5001F02D2084600F07E
:1013F00022B970B500F0C6F800000089FFF7F6BF0B
:101400004FF00040A0F580007047B0FA80F310FA6A
:1014100003F10AD0C3F11D0303F580634FEA415085
:101420004FEA035202EBD12170474FF000007047A2
:10143000DFF848C170B51CEA111E1EBF1CEA131567
:101440009EEA0C0F95EA0C0F00F06F8081EA03040E
:1014500023EA4C134EEAD47E21EA4C1141F4801168
:1014600043F48013AE44A1FB024CA0FB0365AEF134
:101470007F7E361955EB0C05A1FB034C4CF10003A4
:10148000A0FB021C16EB0C06654153F10003094258
:1014900018BF46F0010613F4007F0BD14FEA033169
:1014A0004FEA0530340341EA155140EA16506FF017
:1014B00003020AE04FEAC3214FEAC520F40241EAE1
:1014C000555140EA56506FF0020202EB2E4201EBFA
:1014D000025585EACE710AD05FEA440C18BF24F0A9
:1014E000004450F1000041F1000120EAD47040F2C4
:1014F000FE7C624500D270BDA84214BF4FF080440C
:101500004FF04044002E08BF0024BEF1806FA8BFFA
:10151000A1F1C041BDE8704080F282804FF0000030
:1015200001F1C04101F0004170479EEA0C0F0CEA46
:10153000131518BF95EA0C0F06D04FF0000081EA92
:10154000030E0EF0004170BD00F01CF88900013E52
:1015500000F007B800F009B84FEA430C5FEA5C5CA2
:1015600008D081EA030100F05BB84FEA410C5FEA62
:101570005C5CF6D14FF00000014970470000FF07A6
:101580000000F87F0EF1020E2EF0030E5EF8046BE1
:10159000364205D4012A43EB030515F5001F12D886
:1015A000012841EB010C1CF5001F0CD80ED14FEAAD
:1015B000D17C15F5001F0CEB4C0C0CF1020C08BF94
:1015C0004CEBD37C04E04FF0080C01E04FEAD37CF5
:1015D0000CEB4C0526FA05F606F00706B6F1040CEE
:1015E00006D20EEB860CBDE870404CF0010C604753
:1015F000DFE80CF0090B02024FF000414FF0000051
:10160000A1F5002170BD19461046012851EB0104D7
:1016100018BFD4F5001484BF002001F0004170BD54
:101620000808A0F500114FEA310170474FF04070F3
:10163000E1EE100A7047FF2141EAD050C005704723
:101640000000000000000000010203040607080972
:10165000701600080000002018000000D0010008EB
:101660008816000818000020A8060000EC010008F9
:101670000000000000000000010000001000000059
:08168000000000000024F4004A
:040000050800019559
:00000001FF
